{
  "contractName": "OceanFund",
  "abi": [
    {
      "constant": true,
      "inputs": [
        {
          "name": "",
          "type": "address"
        }
      ],
      "name": "withdrawAmount",
      "outputs": [
        {
          "name": "",
          "type": "uint256"
        }
      ],
      "payable": false,
      "stateMutability": "view",
      "type": "function"
    },
    {
      "constant": true,
      "inputs": [],
      "name": "broker",
      "outputs": [
        {
          "name": "",
          "type": "address"
        }
      ],
      "payable": false,
      "stateMutability": "view",
      "type": "function"
    },
    {
      "inputs": [],
      "payable": false,
      "stateMutability": "nonpayable",
      "type": "constructor"
    },
    {
      "constant": true,
      "inputs": [
        {
          "name": "poolId",
          "type": "uint256"
        },
        {
          "name": "user",
          "type": "address"
        }
      ],
      "name": "getInvestmentByUser",
      "outputs": [
        {
          "name": "",
          "type": "uint256"
        }
      ],
      "payable": false,
      "stateMutability": "view",
      "type": "function"
    },
    {
      "constant": true,
      "inputs": [
        {
          "name": "poolId",
          "type": "uint256"
        }
      ],
      "name": "poolCreator",
      "outputs": [
        {
          "name": "",
          "type": "address"
        }
      ],
      "payable": false,
      "stateMutability": "view",
      "type": "function"
    },
    {
      "constant": true,
      "inputs": [
        {
          "name": "poolId",
          "type": "uint256"
        }
      ],
      "name": "poolName",
      "outputs": [
        {
          "name": "",
          "type": "string"
        }
      ],
      "payable": false,
      "stateMutability": "view",
      "type": "function"
    },
    {
      "constant": true,
      "inputs": [
        {
          "name": "poolId",
          "type": "uint256"
        }
      ],
      "name": "totalInvestmentForPool",
      "outputs": [
        {
          "name": "",
          "type": "uint256"
        }
      ],
      "payable": false,
      "stateMutability": "view",
      "type": "function"
    },
    {
      "constant": true,
      "inputs": [
        {
          "name": "poolId",
          "type": "uint256"
        }
      ],
      "name": "isActive",
      "outputs": [
        {
          "name": "",
          "type": "bool"
        }
      ],
      "payable": false,
      "stateMutability": "view",
      "type": "function"
    },
    {
      "constant": false,
      "inputs": [
        {
          "name": "poolFee",
          "type": "uint256"
        },
        {
          "name": "maxInvestors",
          "type": "uint256"
        },
        {
          "name": "name",
          "type": "string"
        }
      ],
      "name": "createPool",
      "outputs": [
        {
          "name": "",
          "type": "uint256"
        }
      ],
      "payable": true,
      "stateMutability": "payable",
      "type": "function"
    },
    {
      "constant": false,
      "inputs": [
        {
          "name": "poolId",
          "type": "uint256"
        }
      ],
      "name": "closePool",
      "outputs": [],
      "payable": false,
      "stateMutability": "nonpayable",
      "type": "function"
    },
    {
      "constant": false,
      "inputs": [
        {
          "name": "poolId",
          "type": "uint256"
        }
      ],
      "name": "invest",
      "outputs": [],
      "payable": true,
      "stateMutability": "payable",
      "type": "function"
    },
    {
      "constant": true,
      "inputs": [
        {
          "name": "poolId",
          "type": "uint256"
        }
      ],
      "name": "calculateFee",
      "outputs": [
        {
          "name": "",
          "type": "uint256"
        }
      ],
      "payable": false,
      "stateMutability": "view",
      "type": "function"
    },
    {
      "constant": false,
      "inputs": [
        {
          "name": "poolId",
          "type": "uint256"
        }
      ],
      "name": "extract",
      "outputs": [],
      "payable": false,
      "stateMutability": "nonpayable",
      "type": "function"
    },
    {
      "constant": false,
      "inputs": [],
      "name": "withdraw",
      "outputs": [],
      "payable": false,
      "stateMutability": "nonpayable",
      "type": "function"
    }
  ],
  "bytecode": "0x608060405266038d7ea4c68000600355662386f26fc1000060045561271060055534801561002c57600080fd5b5033600260006101000a81548173ffffffffffffffffffffffffffffffffffffffff021916908373ffffffffffffffffffffffffffffffffffffffff160217905550611b838061007d6000396000f3006080604052600436106100c5576000357c0100000000000000000000000000000000000000000000000000000000900463ffffffff1680632afcf480146100ca57806337de615f146100ea5780633ccfd60b14610117578063463a03201461012e5780634f4201511461019b57806382afd23b146101f257806385b3978214610237578063893582241461026457806399a5d747146102e8578063abff011014610329578063cccf3a0214610380578063e7aa1fb214610426578063f002d63a14610487575b600080fd5b6100e8600480360381019080803590602001909291905050506104c8565b005b3480156100f657600080fd5b50610115600480360381019080803590602001909291905050506107ec565b005b34801561012357600080fd5b5061012c610a5e565b005b34801561013a57600080fd5b5061015960048036038101908080359060200190929190505050610b2f565b604051808273ffffffffffffffffffffffffffffffffffffffff1673ffffffffffffffffffffffffffffffffffffffff16815260200191505060405180910390f35b3480156101a757600080fd5b506101dc600480360381019080803573ffffffffffffffffffffffffffffffffffffffff169060200190929190505050610bc7565b6040518082815260200191505060405180910390f35b3480156101fe57600080fd5b5061021d60048036038101908080359060200190929190505050610bdf565b604051808215151515815260200191505060405180910390f35b34801561024357600080fd5b5061026260048036038101908080359060200190929190505050610c64565b005b6102d26004803603810190808035906020019092919080359060200190929190803590602001908201803590602001908080601f0160208091040260200160405190810160405280939291908181526020018383808284378201915050505050509192919290505050610f34565b6040518082815260200191505060405180910390f35b3480156102f457600080fd5b506103136004803603810190808035906020019092919050505061122f565b6040518082815260200191505060405180910390f35b34801561033557600080fd5b5061033e6112c5565b604051808273ffffffffffffffffffffffffffffffffffffffff1673ffffffffffffffffffffffffffffffffffffffff16815260200191505060405180910390f35b34801561038c57600080fd5b506103ab600480360381019080803590602001909291905050506112eb565b6040518080602001828103825283818151815260200191508051906020019080838360005b838110156103eb5780820151818401526020810190506103d0565b50505050905090810190601f1680156104185780820380516001836020036101000a031916815260200191505b509250505060405180910390f35b34801561043257600080fd5b5061047160048036038101908080359060200190929190803573ffffffffffffffffffffffffffffffffffffffff1690602001909291905050506113fb565b6040518082815260200191505060405180910390f35b34801561049357600080fd5b506104b2600480360381019080803590602001909291905050506114b1565b6040518082815260200191505060405180910390f35b600080600083600180549050811015156104e157600080fd5b6001818154811015156104f057fe5b906000526020600020906008020160010160149054906101000a900460ff16151561051a57600080fd5b339350349250600354831015151561053157600080fd5b61053d83600354611529565b925061054885611542565b831115151561055657600080fd5b60018581548110151561056557fe5b906000526020600020906008020191506105e1600080600260009054906101000a900473ffffffffffffffffffffffffffffffffffffffff1673ffffffffffffffffffffffffffffffffffffffff1673ffffffffffffffffffffffffffffffffffffffff168152602001908152602001600020546003546116bd565b600080600260009054906101000a900473ffffffffffffffffffffffffffffffffffffffff1673ffffffffffffffffffffffffffffffffffffffff1673ffffffffffffffffffffffffffffffffffffffff168152602001908152602001600020819055506106908260060160008673ffffffffffffffffffffffffffffffffffffffff1673ffffffffffffffffffffffffffffffffffffffff16815260200190815260200160002054846116bd565b8260060160008673ffffffffffffffffffffffffffffffffffffffff1673ffffffffffffffffffffffffffffffffffffffff168152602001908152602001600020819055506106e38260000154846116bd565b826000018190555060008260070160008673ffffffffffffffffffffffffffffffffffffffff1673ffffffffffffffffffffffffffffffffffffffff1681526020019081526020016000205414156107e55760018260070160008673ffffffffffffffffffffffffffffffffffffffff1673ffffffffffffffffffffffffffffffffffffffff16815260200190815260200160002081905550816004018490806001815401808255809150509060018203906000526020600020016000909192909190916101000a81548173ffffffffffffffffffffffffffffffffffffffff021916908373ffffffffffffffffffffffffffffffffffffffff160217905550505b5050505050565b6000806000836001805490508110151561080557600080fd5b60018181548110151561081457fe5b906000526020600020906008020160010160149054906101000a900460ff16151561083e57600080fd5b60018581548110151561084d57fe5b906000526020600020906008020193508360010160009054906101000a900473ffffffffffffffffffffffffffffffffffffffff1673ffffffffffffffffffffffffffffffffffffffff163373ffffffffffffffffffffffffffffffffffffffff161415156108bb57600080fd5b60008460010160146101000a81548160ff021916908315150217905550600092505b8360040180549050831015610a4d5783600401838154811015156108fd57fe5b9060005260206000200160009054906101000a900473ffffffffffffffffffffffffffffffffffffffff16915060008460060160008473ffffffffffffffffffffffffffffffffffffffff1673ffffffffffffffffffffffffffffffffffffffff168152602001908152602001600020541115610a40576109fd6000808473ffffffffffffffffffffffffffffffffffffffff1673ffffffffffffffffffffffffffffffffffffffff168152602001908152602001600020548560060160008573ffffffffffffffffffffffffffffffffffffffff1673ffffffffffffffffffffffffffffffffffffffff168152602001908152602001600020546116bd565b6000808473ffffffffffffffffffffffffffffffffffffffff1673ffffffffffffffffffffffffffffffffffffffff168152602001908152602001600020819055505b82806001019350506108dd565b600084600001819055505050505050565b60008060003373ffffffffffffffffffffffffffffffffffffffff1673ffffffffffffffffffffffffffffffffffffffff16815260200190815260200160002054905060008060003373ffffffffffffffffffffffffffffffffffffffff1673ffffffffffffffffffffffffffffffffffffffff168152602001908152602001600020819055503373ffffffffffffffffffffffffffffffffffffffff166108fc829081150290604051600060405180830381858888f19350505050158015610b2b573d6000803e3d6000fd5b5050565b60008160018054905081101515610b4557600080fd5b600181815481101515610b5457fe5b906000526020600020906008020160010160149054906101000a900460ff161515610b7e57600080fd5b600183815481101515610b8d57fe5b906000526020600020906008020160010160009054906101000a900473ffffffffffffffffffffffffffffffffffffffff16915050919050565b60006020528060005260406000206000915090505481565b60008160018054905081101515610bf557600080fd5b600181815481101515610c0457fe5b906000526020600020906008020160010160149054906101000a900460ff161515610c2e57600080fd5b600183815481101515610c3d57fe5b906000526020600020906008020160010160149054906101000a900460ff16915050919050565b60008060008360018054905081101515610c7d57600080fd5b600181815481101515610c8c57fe5b906000526020600020906008020160010160149054906101000a900460ff161515610cb657600080fd5b339350610cc28561122f565b9250600185815481101515610cd357fe5b90600052602060002090600802019150610d6c8260060160008673ffffffffffffffffffffffffffffffffffffffff1673ffffffffffffffffffffffffffffffffffffffff168152602001908152602001600020546000808773ffffffffffffffffffffffffffffffffffffffff1673ffffffffffffffffffffffffffffffffffffffff168152602001908152602001600020546116bd565b6000808673ffffffffffffffffffffffffffffffffffffffff1673ffffffffffffffffffffffffffffffffffffffff16815260200190815260200160002081905550826000808673ffffffffffffffffffffffffffffffffffffffff1673ffffffffffffffffffffffffffffffffffffffff1681526020019081526020016000205410151515610dfb57600080fd5b610e4a82600001548360060160008773ffffffffffffffffffffffffffffffffffffffff1673ffffffffffffffffffffffffffffffffffffffff16815260200190815260200160002054611529565b826000018190555060008260060160008673ffffffffffffffffffffffffffffffffffffffff1673ffffffffffffffffffffffffffffffffffffffff16815260200190815260200160002081905550610ee16000808673ffffffffffffffffffffffffffffffffffffffff1673ffffffffffffffffffffffffffffffffffffffff1681526020019081526020016000205484611529565b6000808673ffffffffffffffffffffffffffffffffffffffff1673ffffffffffffffffffffffffffffffffffffffff16815260200190815260200160002081905550610f2d85846116d9565b5050505050565b6000610f3e61198f565b6004543410151515610f4f57600080fd5b60e060405190810160405280600081526020013373ffffffffffffffffffffffffffffffffffffffff1681526020016001151581526020018681526020018581526020016000604051908082528060200260200182016040528015610fc35781602001602082028038833980820191505090505b50815260200184815250905061103b600080600260009054906101000a900473ffffffffffffffffffffffffffffffffffffffff1673ffffffffffffffffffffffffffffffffffffffff1673ffffffffffffffffffffffffffffffffffffffff168152602001908152602001600020546004546116bd565b600080600260009054906101000a900473ffffffffffffffffffffffffffffffffffffffff1673ffffffffffffffffffffffffffffffffffffffff1673ffffffffffffffffffffffffffffffffffffffff168152602001908152602001600020819055506110f26000803373ffffffffffffffffffffffffffffffffffffffff1673ffffffffffffffffffffffffffffffffffffffff168152602001908152602001600020546110ed34600454611529565b6116bd565b6000803373ffffffffffffffffffffffffffffffffffffffff1673ffffffffffffffffffffffffffffffffffffffff1681526020019081526020016000208190555060018082908060018154018082558091505090600182039060005260206000209060080201600090919290919091506000820151816000015560208201518160010160006101000a81548173ffffffffffffffffffffffffffffffffffffffff021916908373ffffffffffffffffffffffffffffffffffffffff16021790555060408201518160010160146101000a81548160ff021916908315150217905550606082015181600201556080820151816003015560a08201518160040190805190602001906112049291906119e5565b5060c0820151816005019080519060200190611221929190611a6f565b505050039150509392505050565b600080600080600033935060018681548110151561124957fe5b906000526020600020906008020192508260060160008573ffffffffffffffffffffffffffffffffffffffff1673ffffffffffffffffffffffffffffffffffffffff168152602001908152602001600020548360000154039150600554836002015483028115156112b657fe5b04905080945050505050919050565b600260009054906101000a900473ffffffffffffffffffffffffffffffffffffffff1681565b6060816001805490508110151561130157600080fd5b60018181548110151561131057fe5b906000526020600020906008020160010160149054906101000a900460ff16151561133a57600080fd5b60018381548110151561134957fe5b90600052602060002090600802016005018054600181600116156101000203166002900480601f0160208091040260200160405190810160405280929190818152602001828054600181600116156101000203166002900480156113ee5780601f106113c3576101008083540402835291602001916113ee565b820191906000526020600020905b8154815290600101906020018083116113d157829003601f168201915b5050505050915050919050565b6000826001805490508110151561141157600080fd5b60018181548110151561142057fe5b906000526020600020906008020160010160149054906101000a900460ff16151561144a57600080fd5b60018481548110151561145957fe5b906000526020600020906008020160060160008473ffffffffffffffffffffffffffffffffffffffff1673ffffffffffffffffffffffffffffffffffffffff1681526020019081526020016000205491505092915050565b600081600180549050811015156114c757600080fd5b6001818154811015156114d657fe5b906000526020600020906008020160010160149054906101000a900460ff16151561150057600080fd5b60018381548110151561150f57fe5b906000526020600020906008020160000154915050919050565b600082821115151561153757fe5b818303905092915050565b60008060008060018581548110151561155757fe5b9060005260206000209060080201925060008360000154141561159c577fffffffffffffffffffffffffffffffffffffffffffffffffffffffffffffffff93506116b5565b826003015483600401805490501015156115b557600080fd5b61160483600001548460060160003373ffffffffffffffffffffffffffffffffffffffff1673ffffffffffffffffffffffffffffffffffffffff16815260200190815260200160002054611529565b91508260020154600554830281151561161957fe5b0490508260060160003373ffffffffffffffffffffffffffffffffffffffff1673ffffffffffffffffffffffffffffffffffffffff168152602001908152602001600020548111156116b0578260060160003373ffffffffffffffffffffffffffffffffffffffff1673ffffffffffffffffffffffffffffffffffffffff16815260200190815260200160002054810393506116b5565b600093505b505050919050565b600081830190508281101515156116d057fe5b80905092915050565b60008060008060008594506001878154811015156116f357fe5b90600052602060002090600802019350600092505b836004018054905083101561189957836004018381548110151561172857fe5b9060005260206000200160009054906101000a900473ffffffffffffffffffffffffffffffffffffffff16915060008460060160008473ffffffffffffffffffffffffffffffffffffffff1673ffffffffffffffffffffffffffffffffffffffff16815260200190815260200160002054111561188c5760055484600201548560060160008573ffffffffffffffffffffffffffffffffffffffff1673ffffffffffffffffffffffffffffffffffffffff16815260200190815260200160002054028115156117f357fe5b0490506118418460060160008473ffffffffffffffffffffffffffffffffffffffff1673ffffffffffffffffffffffffffffffffffffffff16815260200190815260200160002054826116bd565b8460060160008473ffffffffffffffffffffffffffffffffffffffff1673ffffffffffffffffffffffffffffffffffffffff1681526020019081526020016000208190555080850394505b8280600101935050611708565b6118b084600001546118ab8888611529565b6116bd565b8460000181905550611922600080600260009054906101000a900473ffffffffffffffffffffffffffffffffffffffff1673ffffffffffffffffffffffffffffffffffffffff1673ffffffffffffffffffffffffffffffffffffffff16815260200190815260200160002054866116bd565b600080600260009054906101000a900473ffffffffffffffffffffffffffffffffffffffff1673ffffffffffffffffffffffffffffffffffffffff1673ffffffffffffffffffffffffffffffffffffffff1681526020019081526020016000208190555050505050505050565b60e06040519081016040528060008152602001600073ffffffffffffffffffffffffffffffffffffffff168152602001600015158152602001600081526020016000815260200160608152602001606081525090565b828054828255906000526020600020908101928215611a5e579160200282015b82811115611a5d5782518260006101000a81548173ffffffffffffffffffffffffffffffffffffffff021916908373ffffffffffffffffffffffffffffffffffffffff16021790555091602001919060010190611a05565b5b509050611a6b9190611aef565b5090565b828054600181600116156101000203166002900490600052602060002090601f016020900481019282601f10611ab057805160ff1916838001178555611ade565b82800160010185558215611ade579182015b82811115611add578251825591602001919060010190611ac2565b5b509050611aeb9190611b32565b5090565b611b2f91905b80821115611b2b57600081816101000a81549073ffffffffffffffffffffffffffffffffffffffff021916905550600101611af5565b5090565b90565b611b5491905b80821115611b50576000816000905550600101611b38565b5090565b905600a165627a7a72305820fcc7163ecce014804b8b2d65b14e9642b548ddb9b0be9629173c236718f715160029",
  "source": "pragma solidity ^0.4.21;\n\n/**\n * @title SafeMath\n * @dev Math operations with safety checks that throw on error\n */\nlibrary SafeMath {\n\n  /**\n  * @dev Multiplies two numbers, throws on overflow.\n  */\n  function mul(uint256 a, uint256 b) internal pure returns (uint256 c) {\n    if (a == 0) {\n      return 0;\n    }\n    c = a * b;\n    assert(c / a == b);\n    return c;\n  }\n\n  /**\n  * @dev Integer division of two numbers, truncating the quotient.\n  */\n  function div(uint256 a, uint256 b) internal pure returns (uint256) {\n    // assert(b > 0); // Solidity automatically throws when dividing by 0\n    // uint256 c = a / b;\n    // assert(a == b * c + a % b); // There is no case in which this doesn't hold\n    return a / b;\n  }\n\n  /**\n  * @dev Subtracts two numbers, throws on overflow (i.e. if subtrahend is greater than minuend).\n  */\n  function sub(uint256 a, uint256 b) internal pure returns (uint256) {\n    assert(b <= a);\n    return a - b;\n  }\n\n  /**\n  * @dev Adds two numbers, throws on overflow.\n  */\n  function add(uint256 a, uint256 b) internal pure returns (uint256 c) {\n    c = a + b;\n    assert(c >= a);\n    return c;\n  }\n}\n\n\n\n\ncontract OceanFund {\n    \n    struct Pool {   \n        // Contains the total amount invested in each pool \n        uint totalInvestment;\n\n        address creator;\n        bool active;\n        uint poolFee; // * 0.01% is the interest per liquidation\n        uint maxInvestors;\n\n        // Contains the list of investors in each pool \n        address[] investorList;\n        string name;\n\n        // Contains the investments by an investor into a particular pool \n        mapping (address => uint) investments;\n\n        // Contains a bool to check if an investor has been added to the investorList for the pool (prevents duplicates)\n        mapping (address => uint) investorMap;\n    }\n\n    mapping (address => uint) public withdrawAmount;\n\n    Pool[] pools;\n\n    // The address of the owner of OceanFund\n    address public broker;\n\n    uint BROKER_FEE = 0.001 ether;\n    uint CREATION_FEE = 0.01 ether; \n    uint POOL_DENOMINATION = 10000;\n\n    constructor() public {\n        broker = msg.sender;\n    }\n    \n\n    modifier checkValidPool(uint poolId) {\n        require (poolId < pools.length);\n        require (pools[poolId].active);\n        _;\n    }\n\n    function getInvestmentByUser(uint poolId, address user) public checkValidPool(poolId) view returns (uint) {\n        return pools[poolId].investments[user];\n    }\n\n    function poolCreator(uint poolId) public checkValidPool(poolId) view returns(address) {\n        return pools[poolId].creator;\n    } \n\n    function poolName(uint poolId) public checkValidPool(poolId) view returns(string) {\n        return pools[poolId].name;\n    } \n\n    function totalInvestmentForPool(uint poolId) public checkValidPool(poolId) view returns(uint) {\n        return pools[poolId].totalInvestment;\n    } \n\n    function isActive(uint poolId) public checkValidPool(poolId) view returns(bool) {\n        return pools[poolId].active;\n    } \n\n\n    function createPool(uint poolFee, uint maxInvestors, string name) public payable returns (uint) {\n        require (msg.value >= CREATION_FEE);\n        // Initialize pool\n        Pool memory pool = Pool(0, msg.sender, true, poolFee, maxInvestors, new address[](0), name);\n\n        // Manage balances\n        withdrawAmount[broker] = SafeMath.add(withdrawAmount[broker], CREATION_FEE);\n        withdrawAmount[msg.sender] = SafeMath.add(withdrawAmount[msg.sender], SafeMath.sub(msg.value, CREATION_FEE));\n\n        // Add to pools. Note: The id that we return from this function are 0-indexed. \n        return pools.push(pool) - 1;\n    } \n\n    /* \n      In case of an emergency scenario or a deadlock, the contract liquidates everyones investment\n      and allows them to withdraw it. \n      Can only be called by the owner of the contract. \n    */\n    function closePool(uint poolId) public checkValidPool(poolId) {\n        Pool storage pool = pools[poolId]; \n        require (msg.sender == pool.creator);\n\n        pool.active = false;\n        \n        for (uint i = 0; i < pool.investorList.length; i++) {\n            address user = pool.investorList[i];\n\n            if (pool.investments[user] > 0) {\n                withdrawAmount[user] = SafeMath.add(withdrawAmount[user], pool.investments[user]);\n            }\n        }\n        \n        pool.totalInvestment = 0;\n    }\n\n    \n    /* \n      Calculates the maximum amount you can have invest at this point in time. You can't invest\n      more money than the pool can pay you back on, since that would put the pool in deadlock\n      Note: There might be more subtleties to this, this is a hacky version to take care of this \n            problem at the moment. \n    */\n    function calcMaxInvestment(uint poolId) private view returns (uint) {\n        Pool storage pool = pools[poolId];\n\n        // No one invested yet. Put in anything you want\n        if (pool.totalInvestment == 0)\n            return 2 ** 256 - 1;\n\n      // Can't have more that MAX_INVESTORS investors. \n      require(pool.investorList.length < pool.maxInvestors);\n\n      // Some others have invested. Make sure the pool has enough to pay you back. \n      uint remainingPool = SafeMath.sub(pool.totalInvestment, pool.investments[msg.sender]);\n      uint maxInvestment = (remainingPool * POOL_DENOMINATION) / pool.poolFee;\n      if (maxInvestment > pool.investments[msg.sender])\n        return (maxInvestment - pool.investments[msg.sender]);\n      // You've already put in as much as you could. \n      return 0;\n    }\n\n    \n    /* \n      Investors call this function with the amount of money that they want to put in their pool. \n      It makes sure the value is enough to pay the BROKER_FEE, takes the commission from the \n      investment and adds it to the pool. \n      Also calls calcMaxInvestment to set a hard cap on the pool size. \n    */\n    function invest(uint poolId) public payable checkValidPool(poolId) {        \n        address investor = msg.sender;\n        uint amount = msg.value;\n        \n        // Pay broker fee\n        require(amount >= BROKER_FEE);        \n        amount = SafeMath.sub(amount, BROKER_FEE);\n        \n        require (amount <= calcMaxInvestment(poolId));\n\n        Pool storage pool = pools[poolId];\n        withdrawAmount[broker] = SafeMath.add(withdrawAmount[broker], BROKER_FEE);\n        pool.investments[investor] = SafeMath.add(pool.investments[investor], amount);\n        pool.totalInvestment = SafeMath.add(pool.totalInvestment, amount);\n        \n        // Only adds investor to this map if they aren't in yet. \n        if (pool.investorMap[investor] == 0) {\n            pool.investorMap[investor] = 1;\n            pool.investorList.push(investor);\n        }\n    }\n    \n\n    /* \n      Calculates the total fee that is required to pay all the other investors a POOL_FEE\n    */\n    function calculateFee(uint poolId) public view returns (uint) {\n        address investor = msg.sender;\n        Pool storage pool = pools[poolId];\n        uint remainingPool = pool.totalInvestment - pool.investments[investor];\n        uint fee = (remainingPool * pool.poolFee) / POOL_DENOMINATION;\n        return fee;\n    }\n\n\n    /* \n      This function is called privately by extract() to distribute the fees amongst all the \n      investors when one of them liquidates. \n    */\n    function distributeCommissions(uint poolId, uint fee) private {\n        uint moneyLeft = fee;\n        Pool storage pool = pools[poolId];\n\n        for (uint i = 0; i < pool.investorList.length; i++) {\n            address user = pool.investorList[i];\n\n            // The user paying the fees has investments[user] = 0 so they don't get anything.\n            if (pool.investments[user] > 0) {\n                uint commission = (pool.investments[user] * pool.poolFee) / POOL_DENOMINATION;\n                pool.investments[user] = SafeMath.add(pool.investments[user], commission);\n                moneyLeft -= commission;\n            }\n        }\n        \n        // Add the total paid out commision to totalInvestment so that it maintains an \n        // accurate representation of the pool details. \n        pool.totalInvestment = SafeMath.add(pool.totalInvestment, SafeMath.sub(fee, moneyLeft));\n\n        // Since we are doing division, there is a chance there might be excess funds left \n        // which are unaccounted for. \n        withdrawAmount[broker] = SafeMath.add(withdrawAmount[broker], moneyLeft);\n    }\n\n\n    /* \n      Allows an investor to liquidate their funds from their pool investment to withdrawable\n      funds. It takes the distribution fee out of their total principal and sends it out to the \n      other investors through distributeCommissions. \n\n      REVERTS: If the investor doesn't have enough funds to pay everybody else. \n    */\n    function extract(uint poolId) public checkValidPool(poolId) {\n        address investor = msg.sender;\n        uint fee = calculateFee(poolId);\n\n        Pool storage pool = pools[poolId];\n\n        // Calculate the total amount of money investor has in this Pool\n        withdrawAmount[investor] = SafeMath.add(pool.investments[investor], withdrawAmount[investor]);\n\n        // Can't take out money if you don't have enough to pay everybody else\n        require(withdrawAmount[investor] >= fee);\n\n        // Since this money is extracted, remove it from the pool funds\n        pool.totalInvestment = SafeMath.sub(pool.totalInvestment, pool.investments[investor]);\n        pool.investments[investor] = 0;\n        \n        // Remove the fee from the investor's withdraw funds \n        withdrawAmount[investor] = SafeMath.sub(withdrawAmount[investor], fee);\n    \n        // Pay the fee    \n        distributeCommissions(poolId, fee);\n    }\n    \n\n    /* \n        Allows the user to securely withdraw the excess funds that the contract owes them. \n    */\n    function withdraw() public {\n        uint amount = withdrawAmount[msg.sender];\n        withdrawAmount[msg.sender] = 0;\n        msg.sender.transfer(amount);\n    }\n}",
  "sourcePath": "/Users/Tanay/Desktop/359b/cs359b-oceanfund/contracts/OceanFund.sol",
  "compiler": {
    "name": "solc",
    "version": "0.4.23+commit.124ca40d.Emscripten.clang"
  },
  "schemaVersion": "2.0.0",
  "updatedAt": "2018-05-14T19:52:48.258Z"
}