{
  "contractName": "OceanFund",
  "abi": [
    {
      "constant": true,
      "inputs": [],
      "name": "totalInvestment",
      "outputs": [
        {
          "name": "",
          "type": "uint256"
        }
      ],
      "payable": false,
      "stateMutability": "view",
      "type": "function"
    },
    {
      "constant": true,
      "inputs": [
        {
          "name": "",
          "type": "address"
        }
      ],
      "name": "withdrawAmount",
      "outputs": [
        {
          "name": "",
          "type": "uint256"
        }
      ],
      "payable": false,
      "stateMutability": "view",
      "type": "function"
    },
    {
      "constant": true,
      "inputs": [
        {
          "name": "",
          "type": "address"
        }
      ],
      "name": "investorMap",
      "outputs": [
        {
          "name": "",
          "type": "uint256"
        }
      ],
      "payable": false,
      "stateMutability": "view",
      "type": "function"
    },
    {
      "constant": true,
      "inputs": [],
      "name": "owner",
      "outputs": [
        {
          "name": "",
          "type": "address"
        }
      ],
      "payable": false,
      "stateMutability": "view",
      "type": "function"
    },
    {
      "constant": true,
      "inputs": [
        {
          "name": "",
          "type": "address"
        }
      ],
      "name": "investments",
      "outputs": [
        {
          "name": "",
          "type": "uint256"
        }
      ],
      "payable": false,
      "stateMutability": "view",
      "type": "function"
    },
    {
      "constant": false,
      "inputs": [
        {
          "name": "newOwner",
          "type": "address"
        }
      ],
      "name": "transferOwnership",
      "outputs": [],
      "payable": false,
      "stateMutability": "nonpayable",
      "type": "function"
    },
    {
      "inputs": [],
      "payable": false,
      "stateMutability": "nonpayable",
      "type": "constructor"
    },
    {
      "anonymous": false,
      "inputs": [
        {
          "indexed": true,
          "name": "previousOwner",
          "type": "address"
        },
        {
          "indexed": true,
          "name": "newOwner",
          "type": "address"
        }
      ],
      "name": "OwnershipTransferred",
      "type": "event"
    },
    {
      "constant": false,
      "inputs": [],
      "name": "close",
      "outputs": [],
      "payable": false,
      "stateMutability": "nonpayable",
      "type": "function"
    },
    {
      "constant": false,
      "inputs": [],
      "name": "invest",
      "outputs": [],
      "payable": true,
      "stateMutability": "payable",
      "type": "function"
    },
    {
      "constant": true,
      "inputs": [],
      "name": "calculateFee",
      "outputs": [
        {
          "name": "",
          "type": "uint256"
        }
      ],
      "payable": false,
      "stateMutability": "view",
      "type": "function"
    },
    {
      "constant": false,
      "inputs": [],
      "name": "extract",
      "outputs": [],
      "payable": true,
      "stateMutability": "payable",
      "type": "function"
    },
    {
      "constant": false,
      "inputs": [],
      "name": "withdraw",
      "outputs": [],
      "payable": false,
      "stateMutability": "nonpayable",
      "type": "function"
    }
  ],
  "bytecode": "0x60806040526001600660146101000a81548160ff02191690831515021790555066038d7ea4c68000600755600160085534801561003b57600080fd5b50336000806101000a81548173ffffffffffffffffffffffffffffffffffffffff021916908373ffffffffffffffffffffffffffffffffffffffff16021790555033600660006101000a81548173ffffffffffffffffffffffffffffffffffffffff021916908373ffffffffffffffffffffffffffffffffffffffff1602179055506110bd806100cc6000396000f3006080604052600436106100af576000357c0100000000000000000000000000000000000000000000000000000000900463ffffffff16806310ea13df146100b45780631e83cdab146100df5780633ccfd60b146100e957806343d726d6146101005780634f42015114610117578063634ce6681461016e5780638da5cb5b146101c557806396b988621461021c578063e6af35f014610273578063e8b5e51f1461029e578063f2fde38b146102a8575b600080fd5b3480156100c057600080fd5b506100c96102eb565b6040518082815260200191505060405180910390f35b6100e76102f1565b005b3480156100f557600080fd5b506100fe610513565b005b34801561010c57600080fd5b506101156105e6565b005b34801561012357600080fd5b50610158600480360381019080803573ffffffffffffffffffffffffffffffffffffffff1690602001909291905050506107da565b6040518082815260200191505060405180910390f35b34801561017a57600080fd5b506101af600480360381019080803573ffffffffffffffffffffffffffffffffffffffff1690602001909291905050506107f2565b6040518082815260200191505060405180910390f35b3480156101d157600080fd5b506101da61080a565b604051808273ffffffffffffffffffffffffffffffffffffffff1673ffffffffffffffffffffffffffffffffffffffff16815260200191505060405180910390f35b34801561022857600080fd5b5061025d600480360381019080803573ffffffffffffffffffffffffffffffffffffffff16906020019092919050505061082f565b6040518082815260200191505060405180910390f35b34801561027f57600080fd5b50610288610847565b6040518082815260200191505060405180910390f35b6102a66108b2565b005b3480156102b457600080fd5b506102e9600480360381019080803573ffffffffffffffffffffffffffffffffffffffff169060200190929190505050610b73565b005b60055481565b6000803391506102ff610847565b905080341015151561031057600080fd5b61036261031d3483610cc8565b600160008573ffffffffffffffffffffffffffffffffffffffff1673ffffffffffffffffffffffffffffffffffffffff16815260200190815260200160002054610ce1565b600160008473ffffffffffffffffffffffffffffffffffffffff1673ffffffffffffffffffffffffffffffffffffffff1681526020019081526020016000208190555061042d600260008473ffffffffffffffffffffffffffffffffffffffff1673ffffffffffffffffffffffffffffffffffffffff16815260200190815260200160002054600160008573ffffffffffffffffffffffffffffffffffffffff1673ffffffffffffffffffffffffffffffffffffffff16815260200190815260200160002054610ce1565b600160008473ffffffffffffffffffffffffffffffffffffffff1673ffffffffffffffffffffffffffffffffffffffff168152602001908152602001600020819055506104bb600554600260008573ffffffffffffffffffffffffffffffffffffffff1673ffffffffffffffffffffffffffffffffffffffff16815260200190815260200160002054610cc8565b6005819055506000600260008473ffffffffffffffffffffffffffffffffffffffff1673ffffffffffffffffffffffffffffffffffffffff1681526020019081526020016000208190555061050f81610cfd565b5050565b6000600160003373ffffffffffffffffffffffffffffffffffffffff1673ffffffffffffffffffffffffffffffffffffffff1681526020019081526020016000205490506000600160003373ffffffffffffffffffffffffffffffffffffffff1673ffffffffffffffffffffffffffffffffffffffff168152602001908152602001600020819055503373ffffffffffffffffffffffffffffffffffffffff166108fc829081150290604051600060405180830381858888f193505050501580156105e2573d6000803e3d6000fd5b5050565b6000806000809054906101000a900473ffffffffffffffffffffffffffffffffffffffff1673ffffffffffffffffffffffffffffffffffffffff163373ffffffffffffffffffffffffffffffffffffffff1614151561064457600080fd5b6000600660146101000a81548160ff021916908315150217905550600091505b6004805490508210156107ce5760048281548110151561068057fe5b9060005260206000200160009054906101000a900473ffffffffffffffffffffffffffffffffffffffff1690506000600260008373ffffffffffffffffffffffffffffffffffffffff1673ffffffffffffffffffffffffffffffffffffffff1681526020019081526020016000205411156107c15761077d600160008373ffffffffffffffffffffffffffffffffffffffff1673ffffffffffffffffffffffffffffffffffffffff16815260200190815260200160002054600260008473ffffffffffffffffffffffffffffffffffffffff1673ffffffffffffffffffffffffffffffffffffffff16815260200190815260200160002054610ce1565b600160008373ffffffffffffffffffffffffffffffffffffffff1673ffffffffffffffffffffffffffffffffffffffff168152602001908152602001600020819055505b8180600101925050610664565b60006005819055505050565b60016020528060005260406000206000915090505481565b60036020528060005260406000206000915090505481565b6000809054906101000a900473ffffffffffffffffffffffffffffffffffffffff1681565b60026020528060005260406000206000915090505481565b600080600080339250600260008473ffffffffffffffffffffffffffffffffffffffff1673ffffffffffffffffffffffffffffffffffffffff16815260200190815260200160002054600554039150606460085483028115156108a657fe5b04905080935050505090565b600080600660149054906101000a900460ff1615156108d057600080fd5b33915034905060075481101515156108e757600080fd5b6108f381600754610cc8565b90506108fd610f7f565b811115151561090b57600080fd5b61097860016000600660009054906101000a900473ffffffffffffffffffffffffffffffffffffffff1673ffffffffffffffffffffffffffffffffffffffff1673ffffffffffffffffffffffffffffffffffffffff16815260200190815260200160002054600754610ce1565b60016000600660009054906101000a900473ffffffffffffffffffffffffffffffffffffffff1673ffffffffffffffffffffffffffffffffffffffff1673ffffffffffffffffffffffffffffffffffffffff16815260200190815260200160002081905550610a26600260008473ffffffffffffffffffffffffffffffffffffffff1673ffffffffffffffffffffffffffffffffffffffff1681526020019081526020016000205482610ce1565b600260008473ffffffffffffffffffffffffffffffffffffffff1673ffffffffffffffffffffffffffffffffffffffff16815260200190815260200160002081905550610a7560055482610ce1565b6005819055506000600360008473ffffffffffffffffffffffffffffffffffffffff1673ffffffffffffffffffffffffffffffffffffffff168152602001908152602001600020541415610b6f576001600360008473ffffffffffffffffffffffffffffffffffffffff1673ffffffffffffffffffffffffffffffffffffffff1681526020019081526020016000208190555060048290806001815401808255809150509060018203906000526020600020016000909192909190916101000a81548173ffffffffffffffffffffffffffffffffffffffff021916908373ffffffffffffffffffffffffffffffffffffffff160217905550505b5050565b6000809054906101000a900473ffffffffffffffffffffffffffffffffffffffff1673ffffffffffffffffffffffffffffffffffffffff163373ffffffffffffffffffffffffffffffffffffffff16141515610bce57600080fd5b600073ffffffffffffffffffffffffffffffffffffffff168173ffffffffffffffffffffffffffffffffffffffff1614151515610c0a57600080fd5b8073ffffffffffffffffffffffffffffffffffffffff166000809054906101000a900473ffffffffffffffffffffffffffffffffffffffff1673ffffffffffffffffffffffffffffffffffffffff167f8be0079c531659141344cd1fd0a4f28419497f9722a3daafe3b4186f6b6457e060405160405180910390a3806000806101000a81548173ffffffffffffffffffffffffffffffffffffffff021916908373ffffffffffffffffffffffffffffffffffffffff16021790555050565b6000828211151515610cd657fe5b818303905092915050565b60008183019050828110151515610cf457fe5b80905092915050565b600080600080849350600092505b600480549050831015610e8d57600483815481101515610d2757fe5b9060005260206000200160009054906101000a900473ffffffffffffffffffffffffffffffffffffffff1691506000600260008473ffffffffffffffffffffffffffffffffffffffff1673ffffffffffffffffffffffffffffffffffffffff168152602001908152602001600020541115610e80576064600854600260008573ffffffffffffffffffffffffffffffffffffffff1673ffffffffffffffffffffffffffffffffffffffff1681526020019081526020016000205402811515610deb57fe5b049050610e37600260008473ffffffffffffffffffffffffffffffffffffffff1673ffffffffffffffffffffffffffffffffffffffff1681526020019081526020016000205482610ce1565b600260008473ffffffffffffffffffffffffffffffffffffffff1673ffffffffffffffffffffffffffffffffffffffff1681526020019081526020016000208190555080840393505b8280600101935050610d0b565b610ea2600554610e9d8787610cc8565b610ce1565b600581905550610f1360016000600660009054906101000a900473ffffffffffffffffffffffffffffffffffffffff1673ffffffffffffffffffffffffffffffffffffffff1673ffffffffffffffffffffffffffffffffffffffff1681526020019081526020016000205485610ce1565b60016000600660009054906101000a900473ffffffffffffffffffffffffffffffffffffffff1673ffffffffffffffffffffffffffffffffffffffff1673ffffffffffffffffffffffffffffffffffffffff168152602001908152602001600020819055505050505050565b6000806000806005541415610f975760fd925061108c565b610fe2600554600260003373ffffffffffffffffffffffffffffffffffffffff1673ffffffffffffffffffffffffffffffffffffffff16815260200190815260200160002054610cc8565b915060085460648302811515610ff457fe5b049050600260003373ffffffffffffffffffffffffffffffffffffffff1673ffffffffffffffffffffffffffffffffffffffff1681526020019081526020016000205481111561108757600260003373ffffffffffffffffffffffffffffffffffffffff1673ffffffffffffffffffffffffffffffffffffffff168152602001908152602001600020548103925061108c565b600092505b5050905600a165627a7a72305820b1515e910084f382304ab3251708fc9832fa3bb789ab9a302f4e7ab6e5fcb6460029",
  "source": "pragma solidity ^0.4.0;\n\nimport 'openzeppelin-solidity/contracts/ownership/Ownable.sol';\nimport 'openzeppelin-solidity/contracts/math/SafeMath.sol';\n\ncontract OceanFund is Ownable {\n    \n    mapping (address => uint) public withdrawAmount;\n    mapping (address => uint) public investments; \n    mapping (address => uint) public investorMap;\n    address[] investorList;\n    \n    uint public totalInvestment;\n    address broker;\n    bool active = true;\n    uint BROKER_FEE = 0.001 ether;\n    uint POOL_FEE = 1; // * 0.01 \n    \n    function OceanFund() public {\n        broker = msg.sender;\n    }\n    \n    function close() public onlyOwner {\n        active = false;\n        \n        for (uint i = 0; i < investorList.length; i++) {\n            address person = investorList[i];\n\n            if (investments[person] > 0) {\n                withdrawAmount[person] = SafeMath.add(withdrawAmount[person], investments[person]);\n            }\n        }\n        \n        totalInvestment = 0;\n    }\n    \n\n    function calcMaxInvestment() private view returns (uint) {\n    \t// No one invested yet. Put in anything you want\n    \tif (totalInvestment == 0)\n    \t\treturn 2^256 - 1;\n\n  \t\t// Some others have invested. Make sure the pool has enough to pay you back. \n  \t\tuint remainingPool = SafeMath.sub(totalInvestment, investments[msg.sender]);\n    \tuint maxInvestment = (remainingPool * 100) / POOL_FEE;\n    \tif (maxInvestment > investments[msg.sender])\n    \t\treturn (maxInvestment - investments[msg.sender]);\n    \t// You've already put in as much as you could. \n    \treturn 0;\n    }\n\n    // Perhaps add in a limiting feature\n    function invest() public payable {\n        require (active);\n        \n        address investor = msg.sender;\n        uint amount = msg.value;\n        \n        require(amount >= BROKER_FEE);\n        \n        amount = SafeMath.sub(amount, BROKER_FEE);\n        \n        require (amount <= calcMaxInvestment());\n\n        withdrawAmount[broker] = SafeMath.add(withdrawAmount[broker], BROKER_FEE);\n        investments[investor] = SafeMath.add(investments[investor], amount);\n        totalInvestment = SafeMath.add(totalInvestment, amount);\n        \n        if (investorMap[investor] == 0) {\n            investorMap[investor] = 1;\n            investorList.push(investor);\n        }\n    }\n    \n    function calculateFee() public view returns (uint) {\n        address investor = msg.sender;\n        uint remainingPool = totalInvestment - investments[investor];\n        uint fee = (remainingPool * POOL_FEE) / 100;\n        return fee;\n    }\n\n    function distributeCommissions(uint fee) private {\n        uint moneyLeft = fee;\n        \n        for (uint i = 0; i < investorList.length; i++) {\n            address person = investorList[i];\n\n            // The person paying the fees has investments[person] = 0 so they don't get anything.\n            if (investments[person] > 0) {\n                uint commission = (investments[person] * POOL_FEE) / 100;\n                investments[person] = SafeMath.add(investments[person], commission);\n                moneyLeft -= commission;\n            }\n        }\n        \n        totalInvestment = SafeMath.add(totalInvestment, SafeMath.sub(fee, moneyLeft));\n        withdrawAmount[broker] = SafeMath.add(withdrawAmount[broker], moneyLeft);\n    }\n\n    function extract() public payable {\n        address investor = msg.sender;\n        uint fee = calculateFee();\n        require(msg.value >= fee);\n        \n        withdrawAmount[investor] = SafeMath.add(SafeMath.sub(msg.value, fee), withdrawAmount[investor]);\n        withdrawAmount[investor] = SafeMath.add(investments[investor], withdrawAmount[investor]);\n        totalInvestment = SafeMath.sub(totalInvestment, investments[investor]);\n        investments[investor] = 0;\n        \n        distributeCommissions(fee);\n    }\n    \n    function withdraw() public {\n        uint amount = withdrawAmount[msg.sender];\n        withdrawAmount[msg.sender] = 0;\n        msg.sender.transfer(amount);\n    }\n}",
  "sourcePath": "/Users/Tanay/Desktop/359b/cs359b-oceanfund/contracts/OceanFund.sol",
  "compiler": {
    "name": "solc",
    "version": "0.4.23+commit.124ca40d.Emscripten.clang"
  },
  "schemaVersion": "2.0.0",
  "updatedAt": "2018-05-10T10:26:31.517Z"
}