{
  "contractName": "OceanFund",
  "abi": [
    {
      "constant": true,
      "inputs": [],
      "name": "totalInvestment",
      "outputs": [
        {
          "name": "",
          "type": "uint256"
        }
      ],
      "payable": false,
      "stateMutability": "view",
      "type": "function"
    },
    {
      "constant": true,
      "inputs": [
        {
          "name": "",
          "type": "address"
        }
      ],
      "name": "withdrawAmount",
      "outputs": [
        {
          "name": "",
          "type": "uint256"
        }
      ],
      "payable": false,
      "stateMutability": "view",
      "type": "function"
    },
    {
      "constant": true,
      "inputs": [
        {
          "name": "",
          "type": "address"
        }
      ],
      "name": "investorMap",
      "outputs": [
        {
          "name": "",
          "type": "uint256"
        }
      ],
      "payable": false,
      "stateMutability": "view",
      "type": "function"
    },
    {
      "constant": true,
      "inputs": [],
      "name": "owner",
      "outputs": [
        {
          "name": "",
          "type": "address"
        }
      ],
      "payable": false,
      "stateMutability": "view",
      "type": "function"
    },
    {
      "constant": true,
      "inputs": [
        {
          "name": "",
          "type": "address"
        }
      ],
      "name": "investments",
      "outputs": [
        {
          "name": "",
          "type": "uint256"
        }
      ],
      "payable": false,
      "stateMutability": "view",
      "type": "function"
    },
    {
      "constant": false,
      "inputs": [
        {
          "name": "newOwner",
          "type": "address"
        }
      ],
      "name": "transferOwnership",
      "outputs": [],
      "payable": false,
      "stateMutability": "nonpayable",
      "type": "function"
    },
    {
      "inputs": [
        {
          "name": "poolFee",
          "type": "uint256"
        },
        {
          "name": "maxInvestors",
          "type": "uint256"
        }
      ],
      "payable": false,
      "stateMutability": "nonpayable",
      "type": "constructor"
    },
    {
      "anonymous": false,
      "inputs": [
        {
          "indexed": true,
          "name": "previousOwner",
          "type": "address"
        },
        {
          "indexed": true,
          "name": "newOwner",
          "type": "address"
        }
      ],
      "name": "OwnershipTransferred",
      "type": "event"
    },
    {
      "constant": false,
      "inputs": [],
      "name": "close",
      "outputs": [],
      "payable": false,
      "stateMutability": "nonpayable",
      "type": "function"
    },
    {
      "constant": false,
      "inputs": [],
      "name": "invest",
      "outputs": [],
      "payable": true,
      "stateMutability": "payable",
      "type": "function"
    },
    {
      "constant": true,
      "inputs": [],
      "name": "calculateFee",
      "outputs": [
        {
          "name": "",
          "type": "uint256"
        }
      ],
      "payable": false,
      "stateMutability": "view",
      "type": "function"
    },
    {
      "constant": false,
      "inputs": [],
      "name": "extract",
      "outputs": [],
      "payable": false,
      "stateMutability": "nonpayable",
      "type": "function"
    },
    {
      "constant": false,
      "inputs": [],
      "name": "withdraw",
      "outputs": [],
      "payable": false,
      "stateMutability": "nonpayable",
      "type": "function"
    }
  ],
  "bytecode": "0x60806040526001600660146101000a81548160ff02191690831515021790555066038d7ea4c68000600755600160085561012c60095534801561004157600080fd5b5060405160408061123f8339810180604052810190808051906020019092919080519060200190929190505050336000806101000a81548173ffffffffffffffffffffffffffffffffffffffff021916908373ffffffffffffffffffffffffffffffffffffffff16021790555033600660006101000a81548173ffffffffffffffffffffffffffffffffffffffff021916908373ffffffffffffffffffffffffffffffffffffffff160217905550816008819055508060098190555050506111318061010e6000396000f3006080604052600436106100af576000357c0100000000000000000000000000000000000000000000000000000000900463ffffffff16806310ea13df146100b45780631e83cdab146100df5780633ccfd60b146100f657806343d726d61461010d5780634f42015114610124578063634ce6681461017b5780638da5cb5b146101d257806396b9886214610229578063e6af35f014610280578063e8b5e51f146102ab578063f2fde38b146102b5575b600080fd5b3480156100c057600080fd5b506100c96102f8565b6040518082815260200191505060405180910390f35b3480156100eb57600080fd5b506100f46102fe565b005b34801561010257600080fd5b5061010b610571565b005b34801561011957600080fd5b50610122610644565b005b34801561013057600080fd5b50610165600480360381019080803573ffffffffffffffffffffffffffffffffffffffff169060200190929190505050610838565b6040518082815260200191505060405180910390f35b34801561018757600080fd5b506101bc600480360381019080803573ffffffffffffffffffffffffffffffffffffffff169060200190929190505050610850565b6040518082815260200191505060405180910390f35b3480156101de57600080fd5b506101e7610868565b604051808273ffffffffffffffffffffffffffffffffffffffff1673ffffffffffffffffffffffffffffffffffffffff16815260200191505060405180910390f35b34801561023557600080fd5b5061026a600480360381019080803573ffffffffffffffffffffffffffffffffffffffff16906020019092919050505061088d565b6040518082815260200191505060405180910390f35b34801561028c57600080fd5b506102956108a5565b6040518082815260200191505060405180910390f35b6102b3610910565b005b3480156102c157600080fd5b506102f6600480360381019080803573ffffffffffffffffffffffffffffffffffffffff169060200190929190505050610bd1565b005b60055481565b600080600660149054906101000a900460ff16151561031c57600080fd5b3391506103276108a5565b90506103b1600260008473ffffffffffffffffffffffffffffffffffffffff1673ffffffffffffffffffffffffffffffffffffffff16815260200190815260200160002054600160008573ffffffffffffffffffffffffffffffffffffffff1673ffffffffffffffffffffffffffffffffffffffff16815260200190815260200160002054610d26565b600160008473ffffffffffffffffffffffffffffffffffffffff1673ffffffffffffffffffffffffffffffffffffffff1681526020019081526020016000208190555061043f600554600260008573ffffffffffffffffffffffffffffffffffffffff1673ffffffffffffffffffffffffffffffffffffffff16815260200190815260200160002054610d42565b6005819055506000600260008473ffffffffffffffffffffffffffffffffffffffff1673ffffffffffffffffffffffffffffffffffffffff1681526020019081526020016000208190555080600160008473ffffffffffffffffffffffffffffffffffffffff1673ffffffffffffffffffffffffffffffffffffffff16815260200190815260200160002054101515156104d857600080fd5b610521600160008473ffffffffffffffffffffffffffffffffffffffff1673ffffffffffffffffffffffffffffffffffffffff1681526020019081526020016000205482610d42565b600160008473ffffffffffffffffffffffffffffffffffffffff1673ffffffffffffffffffffffffffffffffffffffff1681526020019081526020016000208190555061056d81610d5b565b5050565b6000600160003373ffffffffffffffffffffffffffffffffffffffff1673ffffffffffffffffffffffffffffffffffffffff1681526020019081526020016000205490506000600160003373ffffffffffffffffffffffffffffffffffffffff1673ffffffffffffffffffffffffffffffffffffffff168152602001908152602001600020819055503373ffffffffffffffffffffffffffffffffffffffff166108fc829081150290604051600060405180830381858888f19350505050158015610640573d6000803e3d6000fd5b5050565b6000806000809054906101000a900473ffffffffffffffffffffffffffffffffffffffff1673ffffffffffffffffffffffffffffffffffffffff163373ffffffffffffffffffffffffffffffffffffffff161415156106a257600080fd5b6000600660146101000a81548160ff021916908315150217905550600091505b60048054905082101561082c576004828154811015156106de57fe5b9060005260206000200160009054906101000a900473ffffffffffffffffffffffffffffffffffffffff1690506000600260008373ffffffffffffffffffffffffffffffffffffffff1673ffffffffffffffffffffffffffffffffffffffff16815260200190815260200160002054111561081f576107db600160008373ffffffffffffffffffffffffffffffffffffffff1673ffffffffffffffffffffffffffffffffffffffff16815260200190815260200160002054600260008473ffffffffffffffffffffffffffffffffffffffff1673ffffffffffffffffffffffffffffffffffffffff16815260200190815260200160002054610d26565b600160008373ffffffffffffffffffffffffffffffffffffffff1673ffffffffffffffffffffffffffffffffffffffff168152602001908152602001600020819055505b81806001019250506106c2565b60006005819055505050565b60016020528060005260406000206000915090505481565b60036020528060005260406000206000915090505481565b6000809054906101000a900473ffffffffffffffffffffffffffffffffffffffff1681565b60026020528060005260406000206000915090505481565b600080600080339250600260008473ffffffffffffffffffffffffffffffffffffffff1673ffffffffffffffffffffffffffffffffffffffff168152602001908152602001600020546005540391506064600854830281151561090457fe5b04905080935050505090565b600080600660149054906101000a900460ff16151561092e57600080fd5b339150349050600754811015151561094557600080fd5b61095181600754610d42565b905061095b610fdd565b811115151561096957600080fd5b6109d660016000600660009054906101000a900473ffffffffffffffffffffffffffffffffffffffff1673ffffffffffffffffffffffffffffffffffffffff1673ffffffffffffffffffffffffffffffffffffffff16815260200190815260200160002054600754610d26565b60016000600660009054906101000a900473ffffffffffffffffffffffffffffffffffffffff1673ffffffffffffffffffffffffffffffffffffffff1673ffffffffffffffffffffffffffffffffffffffff16815260200190815260200160002081905550610a84600260008473ffffffffffffffffffffffffffffffffffffffff1673ffffffffffffffffffffffffffffffffffffffff1681526020019081526020016000205482610d26565b600260008473ffffffffffffffffffffffffffffffffffffffff1673ffffffffffffffffffffffffffffffffffffffff16815260200190815260200160002081905550610ad360055482610d26565b6005819055506000600360008473ffffffffffffffffffffffffffffffffffffffff1673ffffffffffffffffffffffffffffffffffffffff168152602001908152602001600020541415610bcd576001600360008473ffffffffffffffffffffffffffffffffffffffff1673ffffffffffffffffffffffffffffffffffffffff1681526020019081526020016000208190555060048290806001815401808255809150509060018203906000526020600020016000909192909190916101000a81548173ffffffffffffffffffffffffffffffffffffffff021916908373ffffffffffffffffffffffffffffffffffffffff160217905550505b5050565b6000809054906101000a900473ffffffffffffffffffffffffffffffffffffffff1673ffffffffffffffffffffffffffffffffffffffff163373ffffffffffffffffffffffffffffffffffffffff16141515610c2c57600080fd5b600073ffffffffffffffffffffffffffffffffffffffff168173ffffffffffffffffffffffffffffffffffffffff1614151515610c6857600080fd5b8073ffffffffffffffffffffffffffffffffffffffff166000809054906101000a900473ffffffffffffffffffffffffffffffffffffffff1673ffffffffffffffffffffffffffffffffffffffff167f8be0079c531659141344cd1fd0a4f28419497f9722a3daafe3b4186f6b6457e060405160405180910390a3806000806101000a81548173ffffffffffffffffffffffffffffffffffffffff021916908373ffffffffffffffffffffffffffffffffffffffff16021790555050565b60008183019050828110151515610d3957fe5b80905092915050565b6000828211151515610d5057fe5b818303905092915050565b600080600080849350600092505b600480549050831015610eeb57600483815481101515610d8557fe5b9060005260206000200160009054906101000a900473ffffffffffffffffffffffffffffffffffffffff1691506000600260008473ffffffffffffffffffffffffffffffffffffffff1673ffffffffffffffffffffffffffffffffffffffff168152602001908152602001600020541115610ede576064600854600260008573ffffffffffffffffffffffffffffffffffffffff1673ffffffffffffffffffffffffffffffffffffffff1681526020019081526020016000205402811515610e4957fe5b049050610e95600260008473ffffffffffffffffffffffffffffffffffffffff1673ffffffffffffffffffffffffffffffffffffffff1681526020019081526020016000205482610d26565b600260008473ffffffffffffffffffffffffffffffffffffffff1673ffffffffffffffffffffffffffffffffffffffff1681526020019081526020016000208190555080840393505b8280600101935050610d69565b610f00600554610efb8787610d42565b610d26565b600581905550610f7160016000600660009054906101000a900473ffffffffffffffffffffffffffffffffffffffff1673ffffffffffffffffffffffffffffffffffffffff1673ffffffffffffffffffffffffffffffffffffffff1681526020019081526020016000205485610d26565b60016000600660009054906101000a900473ffffffffffffffffffffffffffffffffffffffff1673ffffffffffffffffffffffffffffffffffffffff1673ffffffffffffffffffffffffffffffffffffffff168152602001908152602001600020819055505050505050565b6000806000806005541415610ff55760fd9250611100565b6009546004805490501015151561100b57600080fd5b611056600554600260003373ffffffffffffffffffffffffffffffffffffffff1673ffffffffffffffffffffffffffffffffffffffff16815260200190815260200160002054610d42565b91506008546064830281151561106857fe5b049050600260003373ffffffffffffffffffffffffffffffffffffffff1673ffffffffffffffffffffffffffffffffffffffff168152602001908152602001600020548111156110fb57600260003373ffffffffffffffffffffffffffffffffffffffff1673ffffffffffffffffffffffffffffffffffffffff1681526020019081526020016000205481039250611100565b600092505b5050905600a165627a7a7230582088ee0518e1cb40f1a4349e2cc2c3d052ca2ee16aea78237388abdd8e31b2d1510029",
  "source": "pragma solidity ^0.4.0;\n\nimport 'openzeppelin-solidity/contracts/ownership/Ownable.sol';\nimport 'openzeppelin-solidity/contracts/math/SafeMath.sol';\n\ncontract OceanFund is Ownable {\n    \n    mapping (address => uint) public withdrawAmount;\n    mapping (address => uint) public investments; \n    mapping (address => uint) public investorMap;\n    address[] investorList;\n    \n    uint public totalInvestment;\n    address broker;\n    bool active = true;\n    uint BROKER_FEE = 0.001 ether;\n    uint POOL_FEE = 1; // * 0.01 \n    uint MAX_INVESTORS = 300;\n\n    \n    function OceanFund(uint poolFee, uint maxInvestors) public {\n        broker = msg.sender;\n        POOL_FEE = poolFee;\n        MAX_INVESTORS = maxInvestors;\n    }\n    \n    /* \n      In case of an emergency scenario or a deadlock, the contract liquidates everyones investment\n      and allows them to withdraw it. \n      Can only be called by the owner of the contract. \n    */\n    function close() public onlyOwner {\n        active = false;\n        \n        for (uint i = 0; i < investorList.length; i++) {\n            address person = investorList[i];\n\n            if (investments[person] > 0) {\n                withdrawAmount[person] = SafeMath.add(withdrawAmount[person], investments[person]);\n            }\n        }\n        \n        totalInvestment = 0;\n    }\n    \n    /* \n      Calculates the maximum amount you can have invest at this point in time. You can't invest\n      more money than the pool can pay you back on, since that would put the pool in deadlock\n      Note: There might be more subtleties to this, this is a hacky version to take care of this \n            problem at the moment. \n    */\n    function calcMaxInvestment() private view returns (uint) {\n      // No one invested yet. Put in anything you want\n      if (totalInvestment == 0)\n        return 2^256 - 1;\n\n      // Can't have more that MAX_INVESTORS investors. \n      require(investorList.length >= MAX_INVESTORS);\n\n      // Some others have invested. Make sure the pool has enough to pay you back. \n      uint remainingPool = SafeMath.sub(totalInvestment, investments[msg.sender]);\n      uint maxInvestment = (remainingPool * 100) / POOL_FEE;\n      if (maxInvestment > investments[msg.sender])\n        return (maxInvestment - investments[msg.sender]);\n      // You've already put in as much as you could. \n      return 0;\n    }\n\n    \n    /* \n      Investors call this function with the amount of money that they want to put in their pool. \n      It makes sure the value is enough to pay the BROKER_FEE, takes the commission from the \n      investment and adds it to the pool. \n      Also calls calcMaxInvestment to set a hard cap on the pool size. \n    */\n    function invest() public payable {\n        require (active);\n        \n        address investor = msg.sender;\n        uint amount = msg.value;\n        \n        // Pay broker fee\n        require(amount >= BROKER_FEE);        \n        amount = SafeMath.sub(amount, BROKER_FEE);\n        \n        require (amount <= calcMaxInvestment());\n\n        withdrawAmount[broker] = SafeMath.add(withdrawAmount[broker], BROKER_FEE);\n        investments[investor] = SafeMath.add(investments[investor], amount);\n        totalInvestment = SafeMath.add(totalInvestment, amount);\n        \n        if (investorMap[investor] == 0) {\n            investorMap[investor] = 1;\n            investorList.push(investor);\n        }\n    }\n    \n\n    /* \n      Calculates the total fee that is required to pay all the other investors a POOL_FEE\n    */\n    function calculateFee() public view returns (uint) {\n        address investor = msg.sender;\n        uint remainingPool = totalInvestment - investments[investor];\n        uint fee = (remainingPool * POOL_FEE) / 100;\n        return fee;\n    }\n\n\n    /* \n      This function is called privately by extract() to distribute the fees amongst all the \n      investors when one of them liquidates. \n    */\n    function distributeCommissions(uint fee) private {\n        uint moneyLeft = fee;\n        \n        for (uint i = 0; i < investorList.length; i++) {\n            address person = investorList[i];\n\n            // The person paying the fees has investments[person] = 0 so they don't get anything.\n            if (investments[person] > 0) {\n                uint commission = (investments[person] * POOL_FEE) / 100;\n                investments[person] = SafeMath.add(investments[person], commission);\n                moneyLeft -= commission;\n            }\n        }\n        \n        // Add the total paid out commision to totalInvestment so that it maintains an \n        // accurate representation of the pool details. \n        totalInvestment = SafeMath.add(totalInvestment, SafeMath.sub(fee, moneyLeft));\n\n        // Since we are doing division, there is a chance there might be excess funds left \n        // which are unaccounted for. \n        withdrawAmount[broker] = SafeMath.add(withdrawAmount[broker], moneyLeft);\n    }\n\n\n    /* \n      Allows an investor to liquidate their funds from their pool investment to withdrawable\n      funds. It takes the distribution fee out of their total principal and sends it out to the \n      other investors through distributeCommissions. \n\n      REVERTS: If the investor doesn't have enough funds to pay everybody else. \n    */\n    function extract() public {\n        require (active);\n        \n        address investor = msg.sender;\n        uint fee = calculateFee();\n\n        // Calculate the total amount of money investor has in this Pool\n        withdrawAmount[investor] = SafeMath.add(investments[investor], withdrawAmount[investor]);\n        // Since this money is extracted, remove it from the pool funds\n        totalInvestment = SafeMath.sub(totalInvestment, investments[investor]);\n        investments[investor] = 0;\n\n        // Can't take out money if you don't have enough to pay everybody else\n        require(withdrawAmount[investor] >= fee);\n        \n        // Remove the fee from the investor's reach \n        withdrawAmount[investor] = SafeMath.sub(withdrawAmount[investor], fee);\n    \n        // Pay the fee    \n        distributeCommissions(fee);\n    }\n    \n\n    /* \n        Allows the user to securely withdraw the excess funds that the contract owes them. \n    */\n    function withdraw() public {\n        uint amount = withdrawAmount[msg.sender];\n        withdrawAmount[msg.sender] = 0;\n        msg.sender.transfer(amount);\n    }\n}",
  "sourcePath": "/Users/Tanay/Desktop/359b/cs359b-oceanfund/contracts/OceanFund.sol",
  "compiler": {
    "name": "solc",
    "version": "0.4.23+commit.124ca40d.Emscripten.clang"
  },
  "schemaVersion": "2.0.0",
  "updatedAt": "2018-05-10T11:06:10.098Z"
}